:020000040800F2
:1000000000C000207D0200085D3500086135000851
:1000100065350008693500086D35000800000000EE
:10002000000000000000000000000000753500081E
:100030007135000800000000793500087D350008A2
:10004000093600080D36000811360008153600087C
:10005000193600081D36000821360008253600082C
:10006000293600082D3600083136000835360008DC
:10007000393600083D36000841360008453600088C
:10008000493600084D36000851360008553600083C
:10009000F5360008593600085D360008613600085C
:1000A00065360008693600086D36000871360008AC
:1000B00075360008793600087D360008813600085C
:1000C00085360008893600088D360008913600080C
:1000D00095360008993600089D360008A1360008BC
:1000E000A5360008A9360008AD360008B13600086C
:1000F000B5360008B9360008BD360008C13600081C
:10010000C5360008C9360008CD360008D1360008CB
:10011000D5360008D9360008DD360008E13600087B
:10012000E5360008E9360008ED360008F13600082B
:1001300000000000000000000000000000000000BF
:1001400000000000000000000000000000000000AF
:10015000000000000000000000000000000000009F
:10016000000000000000000000000000000000008F
:10017000000000000000000000000000000000007F
:10018000000000000000000000000000000000006F
:10019000000000000000000000000000000000005F
:1001A000000000000000000000000000000000004F
:1001B000000000000000000000000000000000003F
:1001C000000000000000000000000000000000002F
:1001D000000000000000000000000000000000001F
:0401E0005FF8E0F1F3
:1001E40070B414460F2C06460D4604D945EA06039E
:1001F40013F0030F0DD04AB14FF0000C11F80C307E
:1002040000F80C300CF1010C9445F7D1304670BC69
:100214007047A4460B68ACF1100C03604A68426056
:100224008B688360CA681031C2601030BCF10F0F54
:10023400F0D8A4F1100303F00F0223F00F031033DE
:10024400EC18F118032A13D94FF0000C54F80C30B1
:1002540041F80C300CF1040CCCEB0203032BF5D861
:10026400131F03F0030223F003030433E418C91833
:1002740008462146BFE7C046684620F007018D4680
:1002840001B540F20002C2F2000240F6F433C2F2B9
:1002940000039A4216D24FF0000240F20001C2F26B
:1002A40000014BF6D40EC0F6000E40F6F430C2F254
:1002B40000005EF802308B5002F1040201EB0203ED
:1002C4008342F6D340F6F432C2F2000241F22053E4
:1002D400C2F200039A420DD240F6F433C2F2000394
:1002E4004FF0000141F22052C2F2000243F8041B15
:1002F4009342FBD303F0F0FBBDE801408546704711
:10030400044A136803F03803136013681843106039
:100314007047C04600200240044A136823F01003CB
:1003240013601368184310607047C04600200240F1
:10033400034B044A5A6002F188325A607047C0463F
:100344000020024023016745014BD8607047C04636
:1003540000200240094AD36813F0010F01D00120A4
:100364000BE0D36813F0040F01D0022005E0D3683A
:1003740013F0100F14BF0320042070470020024024
:1003840013B50446FFF7E6FF0CE000230193FF33A7
:1003940001E0019B013B0193019B002BF9D1FFF785
:1003A400D9FF013C012802D1002CEED100E004B9B0
:1003B40005201CBD70B506460F200D46FFF7E0FF73
:1003C400042818D10C4C0B30236943F0010323613A
:1003D400ABB23380FFF7D4FF042804D12B0C738015
:1003E4000B30FFF7CDFF012805D0226941F6FE73DB
:1003F40002EA0303236170BD0020024070B5054684
:1004040040F6FF70FFF7BCFF042815D10B4C40F6F3
:10041400FF70236943F0020323616561236943F09C
:1004240040032361FFF7ACFF012805D0226941F6A0
:10043400FD7302EA0303236170BDC046002002403D
:1004440010B5594B594C93F816C05949BCF1010FDA
:1004540056D122880B8892B29BB21B1A9A4213DBA4
:1004640022884B8892B29BB2C3189A420CDC8B88C8
:10047400504A9BB21380CB894F4A9BB213804F4B97
:1004840000221A7060468EE0484C494922888B88C5
:1004940092B29BB21B1A9A4206DB2288CB8892B294
:1004A4009BB2C3189A4256DD404C414922880B89BD
:1004B40092B29BB21B1A9A4208DB22884B8992B2F1
:1004C4009BB2C3189A4201DC8B8962E0374C3849ED
:1004D40022888B8992B29BB21B1A9A4262DB2288D1
:1004E400CB8992B29BB2C3189A425BDC0B88314A27
:1004F4009BB213804B89304A9BB21380032216E0CF
:1005040022880B8892B29BB21B1A9A4213DB228870
:100514004B8892B29BB2C3189A420CDC8B88254A52
:100524009BB213804B89244A9BB213800022234B35
:1005340001201A7037E01D4C1D4922888B8892B225
:100544009BB21B1A9A4213DB2288CB8892B29BB2CD
:10055400C3189A420CDC0B89164A9BB213804B8851
:10056400154A9BB21380154B01221A7010461AE0EB
:100574000E4C0F4922880B8992B29BB21B1A9A42E5
:1005840010DB22884B8992B29BB2C3189A4209DCD1
:100594000B88084A9BB21380CB88074A9BB213800E
:1005A4000222C4E7002010BD340E0020440D0020B8
:1005B400980C0020D20C0020A80C0020C40C0020B1
:1005C40010B5084BD88DFFF73BFF012808D106482A
:1005D400064A0378142101FB0323DB681B790370AB
:1005E40010BDC046340E0020D00C002000000020B6
:1005F40010B51D4A92F86D30FBB9D08DFFF720FF7E
:1006040001282FD1194B1A78194B1B789A4229D0FB
:10061400184A13780133DBB2052B137008D116483E
:10062400164A0378142101FB0323DB681B7903704A
:100634000E4B0F4A1B78137014E0114B1B8813F0F8
:10064400040F0FD00B4A13780133DBB2052B137060
:1006540008D10948094A0378142101FB0323DB6804
:100664001B79037010BDC046340E0020C40C00205A
:10067400F00C0020F80C0020D00C0020000000201A
:10068400160C00200E4A1378ABB19178012912D1CF
:10069400042B0DD10B4B08221A700B4B00221A703D
:1006A4000A4B1A700A4B1A700A4B19700A4B1970CC
:1006B400034B00229A70024A537803B913707047AF
:1006C400380D0020BC0E0020F80C0020D00C0020B7
:1006D400540C0020B40E002060110020034B044988
:1006E40000221A805A800A701A717047F40B002095
:1006F400D00C00200D4B1B794F2B04D80C4A1378D7
:1007040043F0020313700A4B0A4A1B78032B01D1EE
:10071400103300E02323084813600378074A1421A8
:1007240001FB0323DB681B7903707047E00E002094
:10073400F10C0020300E0020D00C0020000000201E
:1007440070B51F491F4A0B78108F0133DBB2834207
:100754000B7001D900230B70194B1A78194BDB8EDF
:10076400934207D3184B10221A70184A9368013326
:10077400936008E082420DD8134B12221A70134A78
:10078400D3680133D360124B01221A70114A6423D7
:10079400137193710C4B104C1A781878142101FBC7
:1007A40000401D7801FB024201FB05458368966801
:1007B4001A68AB681188B0681A7901F0D1FE70BD6F
:1007C400F80C0020340E0020D00C0020080F00206C
:1007D40060110020E00E00200000002010B53B4C0A
:1007E400A37E012B41D13A4B1978002935D0987852
:1007F400012832D1012902D004292BD117E0354B2D
:1008040005221A70344A3548138801331380344B57
:10081400344A1B889BB21380334B0022DA71334B6A
:10082400033283F8C013A18B01F09AFE12E0304B1F
:100834001F221A602F4B00211970264B0F221A70A9
:100844002D4B0D3218702D4B1A702D4B18702D4BEB
:100854009960D9601E4B00229A701D494A78002A7B
:1008640032D11D4B0A705A712EE0002B28D1264B31
:100874001B8813F0400F03D1244B4FF002021A805F
:10088400214B1B8813F0200F1AD01349114B05225A
:100894001A700B88134A01330B80114B00201B88FC
:1008A40088719BB21380104B0122D8710F4BCA710F
:1008B40083F8C023054B0948998B023201F050FE9E
:1008C400034A00239370137010BDC0461014002017
:1008D400380D0020D00C0020F40B0020140D002053
:1008E400440D0020E20C0020E00E00200000002057
:1008F40054140020F80C0020540C0020B40E0020E6
:1009040060110020080F0020160C0020180500209C
:1009140010B53A498B7E012B3ED1394A1378002B0E
:1009240035D09078012832D1022B02D0042B2BD160
:1009340017E0344B06221A70334A898B53880133EB
:100944005380324B324A1B889BB21380314B0022B6
:10095400DA71314B033283F8C003304801F000FEF2
:1009640012E02F4B1F221A602E4B00211970254BC9
:100974000F221A702C4B0D3218702C4B1A702C4B02
:1009840018702C4B9960D9601D4B00229A701C4A38
:100994005378002B31D12FE0002B2AD1264B1B8812
:1009A40013F0200205D1184B5A71244B4FF0020268
:1009B4001A80214B1B8813F0400F1AD01249114B97
:1009C40006221A704B88124A01334B800F4B0020C9
:1009D4001B8888719BB213800E4B0122D8710E4B79
:1009E400CA7183F8C023054B0C48998B023201F07D
:1009F400B7FD034A00239370137010BD1014002038
:100A0400380D0020D00C0020F40B0020440D0020F1
:100A1400E20C0020E00E002000000020140D002055
:100A240054140020F80C0020540C0020B40E0020B4
:100A340060110020080F0020160C0020180500206B
:100A4400104970B50B78104C142000FB0343DB688D
:100A540000221B790B700D4B1A700D4B1A720B7818
:100A64000A7800FB034300FB024209789D6800FBFF
:100A740001419368A8681A688B6811881A7901F093
:100A84006FFD70BDD00C002000000020F10C002090
:100A9400F40B002070B52F4A92F86D30002B2AD148
:100AA400D08DFFF7CDFC012852D12B4B1A782B4B5C
:100AB4001B789A421AD02A492A4C0B78133000FB2F
:100AC4000343DB681B790B700B780A7800FB034344
:100AD40000FB024209789D6800FB01419368A86805
:100AE4001A688B6811881A7901F03AFD1A4B1B4A6F
:100AF4001B7813702CE01B4D1B4A95F8C1330BBBBC
:100B0400138813F0040F23D0154914200B7800FB2D
:100B14000353DB681B790B70012385F8C1330B7811
:100B24000A7800FB035300FB025209789C6800FB1F
:100B340001519368A0681A688B6811881A7901F0CA
:100B44000FFD05E0138813F0040308BF85F8C133D3
:100B540070BDC046340E0020C40C0020F00C0020F0
:100B6400D00C002000000020160C00202E4B2F4833
:100B74001B8870B599B22E4B41811B889AB201F53E
:100B840000739342828103DA02F57C43013383814B
:100B94002648A1F500738289934203DD02F57E7332
:100BA40007338381234D95F86D30CBB91F4AAB8D44
:100BB4009289CB1A934236DD1D4B1F4A1B881F486E
:100BC4009BB2138003781E4A142101FB0323DB68C4
:100BD400698E1B79012203701A4801F0C1FC22E0DE
:100BE400194B1B8813F0040F1DD1184C95F86F3066
:100BF4002279C3F164039A4215DC1048104A037841
:100C0400142101FB0323DB68698E1B790122037025
:100C14000C4801F0A5FC0E4B0E48998A022201F003
:100C24009FFC2379A37170BDE20C0020F40B00201B
:100C3400440D0020340E0020EC0C0020D00C0020C9
:100C440000000020940C0020160C0020E00E002070
:100C540010140020D80C00202E4B2F481B8870B590
:100C64009AB22E4BC2811B8899B2A1F500739342AC
:100C7400018203DD02F57E730733C381264801F543
:100C84000073C289934203DA02F57C430133C381C2
:100C9400234D95F86D30CBB91F4A6B8DD2895B1803
:100CA400934235DA1B4B1F4A1B881F489BB21380A3
:100CB40003781E4A142101FB0323DB68698E1B7928
:100CC400012203701A4801F04BFC21E0194B1B88E8
:100CD40013F0040F1CD1184C95F86F30227963334C
:100CE400934215DA1048114A0378142101FB0323B7
:100CF400DB68698E1B79012203700D4801F030FC1A
:100D04000E4B0F48998A022201F02AFC2379A37121
:100D140070BDC046440D0020F40B0020E20C0020FE
:100D2400340E0020EC0C0020D00C00200000002029
:100D3400940C0020160C0020E00E0020101400205B
:100D4400D80C002070B5154C94F8C053012D24D153
:100D5400134E96F86D302BB9308EFFF771FB0346B6
:100D6400D8B90AE00F4B1B79633BDBB2022B14D9D1
:100D74000D4B1B8813F004030FD10C4984F8C033C6
:100D84000B78142202FB0343DB6809481B792A46CB
:100D94000B70B6F8421001F0E3FB70BD00000020B8
:100DA400340E0020E00E0020160C0020D00C002091
:100DB400C00C002070B5854DAB7E012B53D1844B04
:100DC4001978002949D09878012846D1022916D0EB
:100DD40004292CD001293DD17E4B05221A707E4A6C
:100DE4001388013313807D4B7D4A1B889BB213808B
:100DF4007C4B0022DA717C4B83F8C01311E0754BF5
:100E040006221A70744A538801335380734B744A10
:100E14001B889BB21380734B0022DA71724B83F8E8
:100E2400C0037248A98B033201F09AFB12E0704BA5
:100E34001F221A606F4B00211970664B0F221A7023
:100E44006D4B183218706D4B1A706D4B18706D4BDA
:100E54009960D9605E4B00229A705D4A5378002BEA
:100E640040F0B380B0E05C4C674A63791BBB1388E5
:100E740013F0200F0CD06548298B022201F070FB7F
:100E84006348E98A022201F06BFB0123A37410E09A
:100E9400138813F0400F00F094805C48298B0222E1
:100EA40001F05EFB5A48E98A022201F059FB012352
:100EB400E374637185E0138813F0200F01D00123DC
:100EC400A374514B1B8813F0400F02D0424B0122F4
:100ED400DA7402214D4801F04BFB01284BD13E4E00
:100EE400B57C012D1FD1F37CEBB9474B1B8813F064
:100EF400200440D1374B05221A703388384A013315
:100F04003380364B39481B889BB21380354B032200
:100F1400DC71354B83F8C0532C4B998B01F020FBCB
:100F2400B474747127E02C4CE17C01291ED1EDB915
:100F3400354B1B8813F0400F1DD1264B06221A7027
:100F44006388274A01336380244B28481B889BB25B
:100F54001380244B0322DD71234B83F8C0131B4BF6
:100F6400998B01F0FDFAE574657104E01A4A0023D7
:100F74009374D37453710221254801F0F9FA0128BE
:100F84001FD1154B997C012906D1DA7C22B91E4B5D
:100F94001B8813F0200F08E00F4BDA7C012A07D1DD
:100FA40031B9194B1B8813F0400F05D0194B02E0DF
:100FB400184B4FF002021A80074A00239374D3742B
:100FC4005371034A00239370137070BD10140020F2
:100FD400380D0020D00C0020F40B0020440D00201C
:100FE400E20C0020E00E002000000020140D002080
:100FF40054140020F80C0020540C0020B40E0020DF
:1010040060110020080F0020160C0020D40C0020D2
:10101400E80C00201805002010B539498B7E012BFF
:1010240052D0384B1A881ABB374CE379DBB9A37911
:1010340053B9364B1B8813F0400F60D00123A371C2
:101044003348098B023223E00221314801F090FA3F
:10105400012854D12D4B1B8813F0400F29D16388EC
:101064000133638025E0294B1B8813F0400328E0FB
:10107400012A29D1244CE379FBB9A3795BB9234B29
:101084001B8813F0200F3AD02148098BA27101323A
:1010940001F066FA33E002211D4801F069FA0128E3
:1010A4002DD11A4B1B8813F0200F02D12388013352
:1010B4002380154B00229A7121E0144B1B8813F0F6
:1010C40020031CD1E3711AE0124B1A789AB19B7871
:1010D400012B10D1012A02D0022A09D104E00A4AC4
:1010E40013880133138003E0074A53880133538084
:1010F400084B00229A70074A537803B9137010BD45
:101104001014002018050020F40B0020160C0020F9
:10111400D40C0020380D00201E4B70B51B7AB3B9D7
:101124001D4B1B79782B04D91C4A137843F0010317
:101134001370194B64221A71194B0122B3F846102B
:10114400184801F00DFA134B01221A7220E0012114
:10115400144801F00DFA01281AD11349134C0B78E5
:10116400133000FB0343DB681B790B700B780A78A0
:1011740000FB034300FB024209789D6800FB014128
:101184009368A8681A688B6811881A7901F0E8F9DD
:1011940070BDC046F40B0020E00E0020F10C0020CE
:1011A400340E0020F40C0020D00C0020000000209D
:1011B40070B51B4C23794BB91A4B1B48B3F840103C
:1011C400012201F0CDF90123237127E00121164802
:1011D40001F0CEF9012821D100232371134B144AC5
:1011E4001B8814499BB213800B78134C133000FBFB
:1011F4000343DB681B790B700B780A7800FB03430D
:1012040000FB024209789D6800FB01419368A868CD
:101214001A688B6811881A7901F0A2F970BDC0466A
:10122400F40B0020340E0020FC0C0020440D0020A0
:10123400E20C0020D00C00200000002070B51B4CF4
:1012440023794BB91A4B1B48B3F84010012201F023
:1012540087F90123237127E00121164801F088F959
:10126400012821D100232371134B144A1B881449EC
:101274009BB213800B78134C133000FB0343DB68E1
:101284001B790B700B780A7800FB034300FB0242C6
:1012940009789D6800FB01419368A8681A688B6807
:1012A40011881A7901F05CF970BDC046F40B002076
:1012B400340E0020FC0C0020440D0020E20C002021
:1012C400D00C00200000002070B5584C237943B99D
:1012D400574B5848D98F012201F042F90123237159
:1012E4009EE00121534801F043F9012840F0988021
:1012F4004F4AD37E1BB1504B1B88002B45D14C4B1E
:101304009A7E12B14D4B1B884BB9484B4FF00002EB
:101314001A805B884A4A002B2ED1032363E0012AFA
:1013240001D0012B0AD1414B4FF000025A801B8897
:10133400434A0BB1052326E0042354E0022A01D0DA
:10134400022B65D1394B198821B15B8813B93C4B09
:1013540005221A70354B5B8823B131B9384B06220C
:101364001A7055E0002953D108E0314B344A93F800
:1013740066300BB9053306E0062304E0304A1378DF
:10138400002B2CD10133137042E0927E4FF0000306
:101394002380638012B1294B1B8813B9284B032285
:1013A40005E0012A01D0012B14D1254B04221A7027
:1013B4001A78244C1878142101FB004001FB0242E6
:1013C4001D78836801FB054596681A68B068AB68A8
:1013D40011881AE0022AD1D0022B19D1CEE7137852
:1013E400232B15D10333137013781648117814780E
:1013F400142202FB030302FB01019D6802FB0404A7
:101404008B68A8681968A36809881A7901F0A8F894
:101414000D4A642313719371044A002313715371A9
:101424000A4B0B4A1B889BB2138070BDF40B00203F
:10143400340E0020FC0C00201C0C00201805002099
:10144400D00C002000000020E00E0020440D0020FD
:10145400E20C0020012110B5134801F089F801289D
:1014640008D11248124A0378142101FB0323DB68D4
:101474005B7903700F4A92F86D302BB9D08DFEF76B
:10148400DFFF01280ED104E00B4B1B8813F0040F7F
:1014940008D00648064A0378142101FB0323DB68BD
:1014A4005B79037010BDC046C00C0020D00C002036
:1014B40000000020340E0020160C002070B5584A9D
:1014C40092F86D30002B63D1937D564A13B94FF0D7
:1014D400AA0301E04FF0820301219382524801F0F4
:1014E40047F8012840F09A80504B4E491B889AB225
:1014F4004F4BCA821B889BB29A4203D202F57E7379
:101504000733CB82464B188EFEF79AFF00287ED114
:10151400474A44485388C18A9BB2994205D95288A4
:10152400838A92B29B18994241DB414AD3889BB289
:10153400994206D9D3883B4A9BB2928AD2189142E7
:1015440035DB3B4A53899BB2994206D95389354AC4
:101554009BB2928AD218914229DB354AD3899BB235
:1015640099420BD9D3892F4A9BB2928AD2189142BD
:1015740004DA2B4B9B7D012B34D118E02D482E4AE5
:101584000378142101FB0323DB685B79037029E0F2
:101594000121254800F0ECFF01283FD1274B1B888F
:1015A40013F0040F33D1264BDB79012B08D12148EA
:1015B400214A0378142101FB0323DB681B79E5E747
:1015C400022B1C491C4806D10B78142202FB03038E
:1015D400DB685B7905E00B78142202FB0303DB680C
:1015E4001B790B70134B144C1A781878142101FBD7
:1015F40000401D7801FB024201FB054583689668A3
:101604001A68AB681188B0681A7900F0A9FF044B16
:101614000548B3F87810012200F0A2FF70BDC0465F
:10162400340E0020F40B0020C00C0020440D0020D8
:10163400980C0020D00C002000000020160C002084
:10164400E00E002010B50F4C237E43B90E4B0F481B
:10165400B3F84610012200F083FF01230FE00121BB
:101664000A4800F085FF01280AD10948094A03788D
:10167400142101FB0323DB681B7903700023237609
:1016840010BDC046F40B0020340E0020BC0C00201A
:10169400D00C00200000002070B5604991F86D3036
:1016A400002B66D1C88DFEF7CBFE01280FD15C4B11
:1016B4001A785C4B1B789A4200F0AF805A485B4A18
:1016C4000378142101FB0323DB685B7966E0584B44
:1016D4001A88584B90B2DB89934203D200F57C43BD
:1016E400013398B25449534A0B88D2899A4205D29D
:1016F4000B88A3F57E73073B9BB20B804749CC7DD7
:10170400012C1FD14D4D6B7E33B94D4864212246C7
:1017140000F026FF6C7680E02146494800F028FF5F
:101724000128044679D1404B0C221A7000236B76B1
:101734003F4B414A1B8843489BB213804FF4967138
:10174400224613E03C4C8A8E23889BB29B1A834228
:1017540063DD354B0C221A70384B00225A76344B19
:1017640038481B88498E9BB22380013200F0F8FE72
:1017740053E0354B1B8813F0040611D0334B1A7910
:10178400B1F87630C3F164039A4246DA2648274A10
:101794000378142101FB0323DB681B7903703CE00D
:1017A400CC7D012C1BD1254D6B7E33B9244864219B
:1017B400224600F0D5FE6C7626E02146204800F053
:1017C400D7FE012804461FD1174B0A221A701D4860
:1017D4004FF4967122466E7600F0C2FE14E01B4C64
:1017E400B1F87420A3799B1A227993420CDB0E4B37
:1017F4000C221A70114B13485E76B1F87210012254
:1018040000F0AEFE2379A3710221114800F0B0FE6E
:10181400012802D1044B28221A7070BD340E002016
:10182400C40C0020F00C0020D00C0020000000208C
:10183400440D0020980C0020EC0C0020F40B002038
:10184400B40C0020940C0020160C0020E00E0020A4
:10185400D80C002070B5604991F86D30002B66D12A
:10186400C88DFEF7EDFD01280FD15C4B1A785C4B57
:101874001B789A4200F0AE805A485B4A03781421E0
:1018840001FB0323DB685B7965E0584B1A88584BEE
:1018940090B21B88934203D900F57E73073398B244
:1018A4005449534A0B8812889A4205D90B8803F588
:1018B4007E7307339BB20B804749CC7D012C1FD12B
:1018C4004D4D6B7E33B94D486421224600F048FEED
:1018D4006C767FE02146494800F04AFE0128044620
:1018E40078D1404B0A221A7000236B763F4B414A51
:1018F4001B8843489BB213804FF49671224613E031
:101904003C4C8B8E228892B29B18834262DA354B10
:101914000A221A70384B00225A76344B38481B88F6
:10192400498E9BB22380013200F01AFE52E0354BFF
:101934001B8813F0040610D0334B1A79B1F87630B3
:1019440064339A4246DD2748274A0378142101FB71
:101954000323DB681B7903703CE0CC7D012C1BD195
:10196400254D6B7E33B925486421224600F0F8FDED
:101974006C7626E02146214800F0FAFD0128044651
:101984001FD1184B0A221A701D484FF49671224633
:101994006E7600F0E5FD14E01B4CB1F87430A279CA
:1019A4009B18227993420CDC0E4B0A221A70124BBC
:1019B40013485E76B1F87210012200F0D1FD23794C
:1019C400A3710221114800F0D3FD012802D1054B77
:1019D40027221A7070BDC046340E0020C40C0020AB
:1019E400F00C0020D00C002000000020440D00204A
:1019F400980C0020EC0C0020F40B0020B40C002008
:101A0400940C0020160C0020E00E0020D80C0020BE
:101A140070B5204C94F86D30002B39D01E4B1B88C8
:101A240013F0040F34D01D4A5368013353601C4A29
:101A34005388013B538003F051FB1A4B01221A7067
:101A440094F863301849194833B90B78133202FB00
:101A54000303DB685B7905E00B78142202FB0303C4
:101A6400DB681B790B70104B104C1A781878142112
:101A740001FB00401D7801FB024201FB0545836820
:101A840096681A68AB681188B0681A7900F068FD26
:101A940070BDC046340E0020160C0020080F002034
:101AA400F40B002060110020D00C00200000002066
:101AB40070B5204C94F86D30002B39D01E4B1B8828
:101AC40013F0040F34D01D4A1368013313601C4A09
:101AD4001388013B138003F001FB1A4B01221A7097
:101AE40094F863301849194833B90B78133202FB60
:101AF4000303DB685B7905E00B78142202FB030324
:101B0400DB681B790B70104B104C1A781878142171
:101B140001FB00401D7801FB024201FB054583687F
:101B240096681A68AB681188B0681A7900F018FDD5
:101B340070BDC046340E0020160C0020080F002093
:101B4400F40B002060110020D00C002000000020C5
:101B540070B5834D95F86D30002B40F08180E88D91
:101B6400FEF76EFC012804463FD17E4B1A787E4B6B
:101B74001B789A4200F0B6807C4A53680133536064
:101B84007B4A5388013B538003F0A8FA794B7A4986
:101B94001C7095F86330794833B90B78142202FB32
:101BA4000303DB685B7905E00B78142202FB030373
:101BB400DB681B790B70704B704C1A781878142101
:101BC4001D7801FB004001FB024201FB05458368CF
:101BD40096681A68AB681188B0681A7900F0C0FC7E
:101BE400604B614A1B7813707CE00121644800F06B
:101BF400BFFC012840F0B380624B1A88624B90B25C
:101C0400DB89934203D200F57C43013398B25F49E8
:101C14005D4A0B88D2899A4205D20B88A3F57E735C
:101C2400073B9BB20B8059494D4A0B88928E9BB25D
:101C34009B1A8342534B09DC1B8800229BB20B8006
:101C44004B4B5A764C4B0E321A7002E01B889BB2F7
:101C54000B80434B4A48598E012200F081FC7EE000
:101C64004B4B1B8813F0040447D04A4B1A79B5F840
:101C74007630C3F164039A4234DA3C4A5368013340
:101C840053603B4A5388013B538003F027FA394B96
:101C940001221A7095F863303749384833B90B7804
:101CA400133202FB0303DB685B7905E00B78142233
:101CB40002FB0303DB681B790B702F4B2F4C1A7844
:101CC4001878142101FB00401D7801FB024201FB3E
:101CD4000545836896681A68AB681188B0681A79F4
:101CE40000F03EFC0121264800F042FC0128024697
:101CF40035D11B4B2248598EAFE70121204800F013
:101D040037FC012810D12348017983798B4204D808
:101D1400174B0E225C76184B1A70114B81710122FD
:101D24001748598E00F01CFC1A49CB79022B0DD0B0
:101D34000F4B00225A76104B0E321A700B79104852
:101D44008B71074B0122598E00F00AFC02211248C4
:101D540000F00EFC012802D1074B28221A7070BD36
:101D6400340E0020C40C0020F00C0020080F0020CA
:101D7400F40B002060110020D00C00200000002093
:101D8400940C0020440D0020980C0020EC0C002042
:101D9400160C0020E00E0020D80C002070B5834DF6
:101DA40095F86D30002B40F08180E88DFEF748FBFC
:101DB400012804463FD17E4B1A787E4B1B789A4209
:101DC40000F0B5807C4A1368013313607B4A1388A2
:101DD400013B138003F082F9794B7A491C7095F822
:101DE4006330794833B90B78142202FB0303DB68B0
:101DF4005B7905E00B78142202FB0303DB681B7993
:101E04000B70704B704C1A78187814211D7801FBF4
:101E1400004001FB024201FB0545836896681A688D
:101E2400AB681188B0681A7900F09AFB604B614A7C
:101E34001B7813707BE00121644800F099FB0128B2
:101E440040F0B280624B1A88624B90B21B88934276
:101E540003D900F57E73073398B25F495D4A0B8856
:101E640012889A4205D90B8803F57E7307339BB217
:101E74000B8059494D4A0B88928E9BB2D2188242EC
:101E8400534B09DB1B8800229BB20B804B4B5A76C9
:101E94004C4B0D321A7002E01B889BB20B80434BF3
:101EA4004A48598E012200F05BFB7DE04B4B1B88B6
:101EB40013F0040446D04A4B1A79B5F876306433EB
:101EC4009A4234DD3C4A1368013313603B4A138859
:101ED400013B138003F002F9394B01221A7095F883
:101EE40063303849384833B90B78133202FB0303A3
:101EF400DB685B7905E00B78142202FB0303DB68E3
:101F04001B790B702F4B304C1A781878142101FB75
:101F140000401D7801FB024201FB05458368966879
:101F24001A68AB681188B0681A7900F019FB0121AE
:101F3400264800F01DFB0128024635D11B4B2348DF
:101F4400598EB0E70121214800F012FB012810D17D
:101F54002348017983798B4204D3184B0D225C7694
:101F6400184B1A70114B817101221848598E00F0D8
:101F7400F7FA1B49CB79012B0DD0104B00225A766E
:101F8400104B0D321A700B7910488B71074B0122DC
:101F9400598E00F0E5FA0221124800F0E9FA01280E
:101FA40002D1084B27221A7070BDC046340E00209F
:101FB400C40C0020F00C0020080F0020F40B0020BB
:101FC40060110020D00C002000000020940C0020A0
:101FD400440D0020980C0020EC0C0020160C00206E
:101FE400E00E0020D80C002087488849037814228A
:101FF40002FB03131B6970B523B1037802FB0313BF
:102004001B699847804881490378142202FB031313
:10201400DB685BB1037802FB0313DB681B682BB13D
:10202400037802FB0313DB681B689847764E774DF1
:102034003378142404FB03539B689BB133783278C0
:1020440004FB035304FB0252996893688868197966
:1020540000F08EFA012805D1337804FB03539B6802
:102064005B79337001216A4800F082FA01280CD1AF
:10207400684A1378012B02D1013B137000E0107001
:1020840063483221012200F06BFA5F490B78292B57
:1020940000F058820B78142253435C48C35C002B35
:1020A40000F08F800B785343C35C012B25D00B7851
:1020B4005343C35C022B42D00B785343C35C032BC2
:1020C40067D00B785343C45C042C07D152484FF4B7
:1020D400004105F083FD5148214688E00B785343C5
:1020E400C35C052B00F09C800B785343C35C062B28
:1020F4001CD1484B1B78012B09D147484FF40041B0
:1021040005F06EFD4548042105F068FD08E04248ED
:102114004FF4004105F064FD4048042105F060FDE2
:102124003E484FF4806105F059FD87E00B78534336
:10213400C35C072B0DD1374B1B78012B1AD13648C2
:102144004FF4004105F04AFD3448042105F048FDF0
:1021540028E00B785343C35C082B07D02A49142288
:102164000B782A485343C35C092B09D1294B1B78AC
:10217400012B26D028484FF4004105F02FFD54E0F0
:102184000B785343C35C0A2B12D1224B1B78012BCF
:1021940046D121484FF4004105F022FD1F48042197
:1021A40005F01CFD1D484FF4806105F019FD25E084
:1021B4000B785343C35C0B2B09D1164B1B78012BB3
:1021C4002ED115484FF4004105F008FDA4E70B7823
:1021D4005343C35C0C2B35D10E4B1B78012B1FD101
:1021E4000D484FF4004105F0F9FC0C48042105F0BA
:1021F400F5FC0A484FF4806105F0F0FC074808211B
:1022040005F0ECFC1EE0C046D00C002000000020CD
:10221400180D0020E00C002000080140000C0140D3
:1022240087484FF4004105F0DBFC8648042105F0A3
:10223400D7FC84484FF4806105F0D2FC8148082122
:1022440005F0CEFC804890F84E1000297AD17F4DDD
:102254007F4C2B78142202FB03435B681B78012B11
:102264006ED17C4B7C491B889BB20B802B7802FB84
:1022740003435B6890F86D201B79002B2AD1FAB9CF
:10228400764A0B88D2899A4205D20B88A3F57E73CD
:10229400073B9BB20B80704C71486B4A21880388C2
:1022A400528F9BB289B29B1A994206DD2288038819
:1022B400934202D96B4B59782DE06A4B19782AE086
:1022C400694B1A7990F8703064339A42654B674AC7
:1022D40032DC2FE0002A23D1604A0B8812889A420C
:1022E40005D90B8803F57E7307339BB20B805A49DB
:1022F4005F480A88038893420BD2534B09880288AB
:102304005B8F92B289B29B18994202DA554B597A83
:1023140001E0544B197A0901544BC83159830FE039
:10232400514B1A7990F87030C3F164039A424D4BC3
:102334004E4A01DB197800E059780901C83151830C
:102344004C4801E04B48002106F038F93E48447DF2
:10235400002C28D13D4B3E4A1B78142101FB03235A
:102364005B685B78012B1BD1437B404A1BB9437CE0
:102374001B01C83301E04FF47A739383334B344A1F
:102384001B78142101FB03235B685B79012B03D1C8
:10239400364B3848998B08E036484FF47A7104E09C
:1023A4003448214601E03348002106F005F9264867
:1023B400C37D002B40F0AA80C37A93B9234B244AEF
:1023C4001B78142101FB03235B68284A9B79012BAA
:1023D40003D1C37B1B01C83301E04FF47A73D38369
:1023E40003E0224B4FF47A72DA83174B174AD97CF5
:1023F400174869B91378142404FB03035B689B78BA
:10240400012B01D11C483BE0137804FB03030AE0D1
:102414001378142101FB03035B689B78012B2DD1F6
:10242400137801FB03035B689B79012B03D10F4BEA
:102434001148D98B24E010484FF47A7120E0C0464B
:1024440000080140000C0140340E0020D00C002094
:1024540000000020440D0020B80C0020980C00203F
:10246400D20C002010140020E00E0020F40B0020F9
:10247400A80C0020002C0140000400403248002138
:1024840006F0A0F83148037B93B9314B314A1B78ED
:10249400142101FB03235B682F4A9B79012B03D191
:1024A400037C1B01C83301E04FF47A73138403E007
:1024B400294B4FF47A721A84244B254A197D2548F6
:1024C40069B91378142404FB03035B68DB78012BDC
:1024D40001D11D4820E0137804FB03030AE01378BC
:1024E400142101FB03035B68DB78012B12D1137801
:1024F40001FB03035B689B79012B03D1164B124844
:10250400198C09E010484FF47A7105E00E48002157
:1025140006F058F80C48002106F050F80C4B0D4A10
:102524001B78142101FB03235B681B792BB90B482F
:1025340001F57B7105F054FB04E008484FF4806119
:1025440005F04CFB70BDC04600040040340E002072
:10255400D00C002000000020F40B002000080140F3
:10256400024B53F822305B18036070471C0D0020A7
:10257400044B006853F82130984214BF0020012016
:102584007047C0461C0D0020154A1378292B26D00D
:1025940014494B7E2BB9144B1B8813F0010F10D137
:1025A40006E0012B0DD1104B1B8813F0010F08D04E
:1025B40091F86E301BB1012B01D0022B0FD11F33C8
:1025C4000CE013781F2B05D01378202B02D013783E
:1025D400212B04D1024A00231370044A137070475C
:1025E400D00C0020340E0020160C0020F80B002024
:1025F40010B54C4B4C4ADB884B4903F57A739BB2BC
:10260400B3F5FD6F538024BF40F2DC535380474B36
:102614009B7D012B42D14A884548A2F5DC63093BE6
:102624009BB2FE2B9CBFA2F580734B803E494A8827
:10263400A2F5BC63093B9BB2FF2B9CBFA2F5807340
:102644004B8039494A88A2F59C63093B9BB2FF2B16
:102654009CBFA2F580734B80334B5C88334B9A8FBD
:10266400A11A89B201F58073121992B29BB201804A
:102674004280838002F580739BB2C38001F50073AE
:102684009BB2038101F5407102F500739BB289B2DC
:1026940002F54072438192B2818141E04B88B3F5E7
:1026A400FD6F24BF40F2DC534B801F494A8802F57A
:1026B400784303F5B7739BB2B3F5AB7F03D2A2F5AE
:1026C400AA73013B4B8018494A8802F57A43C23306
:1026D4009BB2B3F5AA7F03D2A2F5AA73013B4B8048
:1026E400114B13485C88114B9A8FA11A89B201F5DA
:1026F400AA731219013392B29BB20180428001F590
:102704002A71838002F5AA7302F52A720133023119
:10271400023289B29BB292B2C3800181428181812B
:10272400C28110BD10140020160C0020340E0020AD
:10273400980C0020054B10B51B78292B04D00448B5
:102744004FF47A7105F038FF10BDC046D00C00205C
:1027540000040040844B10B51B78292B40F05B81AA
:10276400824B1C7E002C64D1814B9B8813F00801A2
:1027740016BF80487F484FF47A7105F01FFF7C4BE9
:102784009B8813F0100116BF7A487A484FF47A7187
:1027940005F012FF764B9B8813F0200116BF764894
:1027A40075484FF47A7105F00DFF714B9B8813F057
:1027B400400116BF704870484FF47A7105F0FEFE70
:1027C4006B4B9B8813F0800116BF6B486A484FF42B
:1027D4007A7105F0F5FE664B9B8813F0080116BF6D
:1027E400654865484FF47A7105F0E6FE63480421B4
:1027F40005F0F6F962484FF4004105F0F1F95F483D
:10280400082105F0EDF95D484FF4806105F0E8F921
:102814005A484FF4006105F0E3F95A484FF4005167
:1028240005F0DEF95548202105F0DAF95448042171
:10283400E6E0012C38D100214E4805F0BFFE4C4B98
:102844009B8813F0080F04D04C48042105F0C6F906
:1028540003E04A48042105F0C3F9454B9B8813F073
:10286400100F05D046484FF4004105F0B7F904E0D5
:1028740043484FF4004105F0B3F93D4B9B8813F0F6
:10288400200F04D03D48082105F0A8F903E03B4897
:10289400082105F0A5F9364B9B8813F0400F01D0B1
:1028A40036484AE035484CE0022C4DD131484FF4CB
:1028B4007A7105F083FE2E4B9B8813F0080F05D028
:1028C4002E484FF4006105F089F904E02B484FF4D9
:1028D400006105F085F9264B9B8813F0100F05D095
:1028E40028484FF4005105F079F904E025484FF4E5
:1028F400005105F075F91E4B9B8813F0200F04D08E
:102904001E48202105F06AF903E01C48202105F047
:1029140067F9174B9B8813F0400F04D01848042123
:1029240005F05CF903E01648042105F059F9104B51
:102934009B8813F0800F03D011484FF4806110E09E
:102944000F484FF4806164E0032C1DD10021094835
:1029540005F034FE064B9B8813F0080F57D0084847
:10296400082105F03BF956E0D00C0020E00E0020D1
:10297400160C0020002C014000040040000C014013
:102984000008014000100140042C44D122480021D9
:1029940005F014FE2048002105F00EFE1F4800211A
:1029A40005F010FE1D48002105F008FE1B4800211B
:1029B40005F006FE1948002105F0FEFD18482146E1
:1029C40005F00EF917484FF4004105F009F91448D1
:1029D400082105F005F912484FF4806105F000F96B
:1029E4000F484FF4006105F0FBF80F484FF4005115
:1029F40005F0F6F80A48202105F0F2F809482146C6
:102A040005F0EEF807484FF4806105F0E9F8054851
:102A1400082105F0E5F810BD002C01400004004039
:102A2400000C01400008014000100140264A10B586
:102A34001378292B46D0254BDB7E93B91378162BBC
:102A440002D01378242B05D121484FF4006105F0FE
:102A5400C5F804E01E484FF4006105F0C1F81A4AB5
:102A64001FE0012B2ED113780A2B08D013780D2BDD
:102A740005D01378162B02D01378242B05D11448D3
:102A84004FF4006105F0AAF804E011484FF4006126
:102A940005F0A6F80C4A13780C2B08D013780E2BEB
:102AA40005D01378172B02D01378252B05D10948AC
:102AB4004FF4005105F092F804E006484FF4005139
:102AC40005F08EF810BDC046D00C00201014002074
:102AD400000C014000100140144A10B51378092B72
:102AE40014D013780A2B11D013780B2B0ED0137833
:102AF4000C2B0BD013780D2B08D013780E2B05D08C
:102B04001378272B02D01378282B0AD103210848E5
:102B1400FFF72EFD012808D10648042105F05EF8D0
:102B240003E00448042105F05BF810BDD00C00203C
:102B3400140D002000080140084A10B51378292B11
:102B44000BD013781A2B04D10548202105F046F840
:102B540003E00348202105F043F810BDD00C002009
:102B6400000C01400E4B10B51B78292B16D00D48D4
:102B74000D4BB0F91020B3F91E108A4206DAC37C5B
:102B840043B90A48082105F029F807E0B0F90E30E6
:102B94008B4203DD0548082105F022F810BDC0462C
:102BA400D00C002010140020E00E0020000801408A
:102BB40070B5324B32481B7890F86910292B90F885
:102BC4006B5090F86A6090F86C4055D04FF4616295
:102BD400514372433C2303FB051503FB042690F881
:102BE4006730012B04D190F86840012C07D128E00C
:102BF400002B41D190F86840012C17D12DE0002C16
:102C04003AD1B54208D205F023FAA84219D305F007
:102C14001FFAB04215D825E02ED905F019FAA842BA
:102C240020D205F015FAB0421CD921E024BBB542EC
:102C34000AD205F00DFAA84203D305F009FAB0420E
:102C44000BD91048002115E016D905F001FAA84265
:102C540003D205F0FDF9B0420AD80B4B1B8813F0E0
:102C6400020103D007484FF47A7103E0054801E0FC
:102C74000448214605F0A4FC70BDC046D00C0020D9
:102C8400340E002000040040160C00202DE9F84FFB
:102C9400774B9B7E012B6DD1764E774FB37E022B03
:102CA40065D13B8096F84F3096F85110012B96F879
:102CB400524096F8535096F8540096F855B096F84A
:102CC40056A096F8579096F8588024D84FF461622D
:102CD40051436A433C2303FB041403FB0025AC4229
:102CE4000BD205F0B5F9A04215D305F0B1F9A8420D
:102CF40011D896F84F303B800DE00CD905F0A8F9B7
:102D0400A04203D205F0A4F9A84204D8594B93F881
:102D14004F20594B1A80574E96F85030012B29D822
:102D24004FF4616202FB0BF102FB09F23C2303FB4B
:102D34000A1403FB0825AC420AD205F089F9A04223
:102D440018D305F085F9A84214D896F850200BE062
:102D540010D905F07DF9A04203D205F079F9A84213
:102D640008D8444B93F85020434B1A8002E04FF0AC
:102D740002023A80404B19885B888B420ED03F4A4E
:102D84001378012B05D01378072B02D01378082B66
:102D940004D13A4A23231370374B5980354B384FAB
:102DA400DA7E012A5FD193F8596093F85B1093F8A7
:102DB4005C4093F85D5093F85E0093F85FB093F82D
:102DC40060A093F8619093F86280FA800EBB4FF490
:102DD400616251436A433C2303FB041403FB002553
:102DE400AC4209D205F034F9A04212D305F030F90F
:102DF400A8420ED8FE800CE00BD905F029F9A042B8
:102E040003D205F025F9A84203D81D4B4FF0000268
:102E1400DA80184B93F85A6046BB4FF4616202FBA8
:102E24000BF102FB09F23C2303FB0A1403FB082504
:102E3400AC420AD205F00CF9A04217D305F008F908
:102E4400A84213D80E4BDE8010E00FD905F000F92C
:102E5400A04203D205F0FCF8A84207D8084B4FF073
:102E64000002DA8002E04FF00103FB80BDE8F88F36
:102E740010140020340E002018050020D00C00206F
:102E8400160C0020012110B51248FFF771FB012830
:102E940001461ED1104805F059FC022004F008FE3A
:102EA4000028FAD0022004F017FE0C4A0C481388BC
:102EB40005214383538801229BB28383C3F5DA63DC
:102EC40006331BB293FBF1F31933C3830148FFF7B5
:102ED40047FB10BD400D002000240140D40D00200C
:102EE400E00E0020012110B51948FFF741FB01282D
:102EF4002BD11848102104F073FE032000F0CAFF00
:102F04001548022105F016F90028F9D012480021CD
:102F140005F00AF91048012105F00CF90028F9D050
:102F24000D4805F003F90D4C2081032000F0B2FF99
:102F34000848102104F052FE23890548C3F34913BD
:102F4400022101222381FFF70BFB044B188910BDDA
:102F5400300D00200008014000300140160C002014
:102F6400012110B59248FFF703FB0128014640F008
:102F74005E81904C00239048637004F029FE18B9D8
:102F8400637843F0010363708B48102104F020FE42
:102F940020B9884A537843F00203537087480221CA
:102FA40004F016FE20B9834A537843F004035370A7
:102FB4000821814804F00CFE0128814A04D11388B9
:102FC4009BB243F0040304E0138823F004031B04BE
:102FD4001B0C13800421784804F0FAFD0128784A78
:102FE40004D113889BB243F0080304E0138823F050
:102FF40008031B041B0C138002216F4804F0E8FD36
:1030040001286F4A04D113889BB243F0100304E0F3
:10301400138823F010031B041B0C13806648012142
:1030240004F0D6FD664A20B913889BB243F020030E
:1030340004E0138823F020031B041B0C13805E4858
:10304400102104F0C5FD5E4A20B913889BB243F0F9
:10305400400304E0138823F040031B041B0C13807B
:103064005548202104F0B4FD554A28B9138823F0AB
:1030740001031B041B0C03E013889BB243F0010300
:1030840013804E48012104F0A3FD4D4A28B1138852
:1030940023F002031B041B0C03E013889BB243F0D0
:1030A400020313800821444804F092FD0128444A95
:1030B40004D193889BB243F0010304E0938823F086
:1030C40001031B041B0C938004213B4804F080FD86
:1030D40001283B4A04D193889BB243F0020304E0E5
:1030E400938823F002031B041B0C938002213248B3
:1030F40004F06EFD0128324A04D193889BB243F058
:10310400040304E0938823F004031B041B0C938042
:103114002948012104F05CFD294A20B993889BB217
:1031240043F0080304E0938823F008031B041B0CFA
:1031340093802148102104F04BFD214A20B9938843
:103144009BB243F0100304E0938823F010031B04A4
:103154001B0C93801848202104F03AFD184A20B92A
:1031640093889BB243F0200304E0938823F0200368
:103174001B041B0C93801148012104F029FD104A03
:1031840020B993889BB243F0400304E0938823F072
:1031940040031B041B0C93800848022104F018FD13
:1031A400074A78B993889BB243F080030FE0C04686
:1031B4000C0D0020380D002000100140000C0140CF
:1031C400160C0020938823F080031B041B0C2F4C47
:1031D4009380237823BBA37813BB2D48012104F0EB
:1031E400F7FC28B9237843F0010323700123A3706B
:1031F4002748102104F0ECFC30B9244B1A7842F033
:1032040002021A7001229A702248022104F0E0FCA2
:1032140030B91E4B1A7842F004021A7001229A70D7
:103224001D4B1E48B3F84C100122FFF799F91C49B5
:103234004A799AB91B4A138813F0100F25D01388C2
:1032440013F0080F0B7903D001330B71012302E053
:10325400013B0B710223CB71012214E0012A14D12A
:103264001048038813F0100F0FD1038813F0080FD0
:103274000B7903D101330B71CA7103E0013B0B716C
:103284000223CB710022064B5A7110BD380D002069
:1032940000100140000C0140340E00200C0D0020F1
:1032A400E00E0020160C0020012110B54948FFF75C
:1032B4005FF9012840F08C80474C002347484FF4C5
:1032C4000051637004F084FC18B9637843F001037F
:1032D400637043484FF4006104F07AFC20B93E4A1D
:1032E400537843F0020353703D484FF4805104F087
:1032F4006FFC20B9384A537843F0040353703948BB
:10330400102104F065FC20B9334A537843F00803D4
:10331400537032484FF4804104F05AFC20B92E4ACD
:10332400537843F0100353702D484FF4806104F038
:103334004FFC20B9284A537843F020035370264C9D
:103344002378002B3FD1A378002B3CD123484FF4A2
:10335400005104F03DFC18B9237843F001032FE039
:103364001F484FF4006104F033FC18B9237843F08C
:10337400020325E01A484FF4805104F029FC18B9DF
:10338400237843F004031BE01648102104F020FCCA
:1033940018B9237843F0080312E010484FF4804131
:1033A40004F016FC18B9237843F0100308E00C4825
:1033B4004FF4806104F00CFC28B9237843F0200317
:1033C40023700123A370034805210122FFF7C8F8E5
:1033D40010BDC046000D0020040D0020000801406F
:1033E40000100140000C014010B5FFF77BFD174BA6
:1033F40000F57A7080B218801B88154AA3F57A7399
:103404001380144B144A1B881380144B1B8853805D
:10341400FFF738FDFFF748FFFFF7A2FD00F0ACFA15
:1034240000F094FDFFF7B0F8FFF79CFBFFF72EFCCC
:10343400FFF7FCFAFFF7BCFBFFF77CF9FFF77CFB17
:10344400FFF74AFBFFF786F910BDC046440D002084
:10345400E00E0020F40B002020110020F60B0020C9
:1034640070B5304850210122FFF77AF82D48012128
:10347400FFF77EF80028F9D0052101222A48FFF73A
:103484006FF8022101222948FFF76AF8322101224C
:103494002748FFF765F8022101222648FFF760F864
:1034A400642101222448FFF75BF805210122234807
:1034B400FFF756F8FFF79CF8214B224900251D70B1
:1034C40091F82130012B01D0022B01D1222222E0DC
:1034D4001D4C4AF2A553E28A9A4202D1257629224A
:1034E40019E091F86D204AB991F828301749012B59
:1034F40002D819230B7010E00A700EE06E23042129
:103504001348E5712371A37104F062FB01280CBF19
:103514006071657100220D4B1A700E4B586800F0F3
:1035240083FC70BD080D0020000D0020300D00202C
:10353400180D00200C0D00203C0D0020400D002033
:10354400F80C0020340E0020E00E0020D00C0020E7
:1035540000100140180500207047C046FEE7C04631
:10356400FEE7C046FEE7C046FEE7C0467047C046D9
:103574007047C0467047C0461E4A1F48136801334F
:10358400136003680133036011680A22B1FBF2F38C
:1035940002FB13132BB9194B01221A7043689B18B1
:1035A4004360144B64221968B1FBF2F302FB13135A
:1035B4001BB9114A9368013393600E484FF47A7231
:1035C4000168B1FBF2F302FB131141B90A4AD36853
:1035D4000133D3600A4A1368013313600160084958
:1035E4000B683B2B05D9044B1A6901321A6100237D
:1035F4000B607047340D00201C0D0020810C00204E
:10360400100D00207047C0467047C0467047C04642
:103614007047C0467047C0467047C0467047C046B2
:103624007047C0467047C0467047C0467047C046A2
:103634007047C0467047C0467047C0467047C04692
:103644007047C0467047C0467047C0467047C04682
:103654007047C0467047C0467047C0467047C04672
:103664007047C0467047C0467047C0467047C04662
:103674007047C0467047C0467047C0467047C04652
:103684007047C0467047C0467047C0467047C04642
:103694007047C0467047C0467047C0467047C04632
:1036A4007047C0467047C0467047C0467047C04622
:1036B4007047C0467047C0467047C0467047C04612
:1036C4007047C0467047C0467047C0467047C04602
:1036D4007047C0467047C0467047C0467047C046F2
:1036E4007047C0467047C0467047C0467047C046E2
:1036F40010B503F08BFC10BD10F0030F01D00020B7
:1037040013E06422B0FBF2F302FB13039BB20BB190
:1037140001200AE04FF4C872B0FBF2F302FB13037A
:103724009BB2D3F1010038BF0020704710B58378F5
:1037340004460133DBB2062B837001D90023837066
:103744002379012B0BD0032B09D0052B07D0072B92
:1037540005D0082B03D00A2B01D00C2B0BD1E27817
:103764001E2A13D90C2B13D10123E3702371238850
:103774000133238023E0042B05D0062B03D0092B2F
:1037840001D00B2B06D1E2781D2A01D8531C15E079
:10379400013311E0022B12D1E3781B2B01D8013342
:1037A4000CE01C2B05D12088FFF7A6FF18B11D23C0
:1037B40004E01D2B03D1032323710123E37010BD07
:1037C4002DE9FF4106460F46904601A80C221949EF
:1037D400FCF706FD40F2DF70864201D800240FE0BA
:1037E400054600242846FFF787FF01280EBF04F58D
:1037F400B77404F5B67401346B1C9DB2B542F1D3B1
:10380400002206E004A98B1813F80C3CE418531C9E
:103814009AB27B1E9A42F5DB012F05D93046FFF799
:103824006BFF012808BF013404EB080004B0BDE8B5
:10383400F081C046458900080A4B00221A6009E05D
:10384400094B01329A4205D9064B1A60074B0122F3
:103854001A7006E0064B9B8813F0200FF0D0014B42
:103864001A607047BC0D00203F4B4C00240C002014
:10387400002800400E4B0F4A00211960938823F062
:1038840008031B041B0C938009E00B4B0131994284
:1038940005D9074B01221960084B1A7006E0054B45
:1038A4009B8813F0080FF0D0014B19607047C04695
:1038B400BC0D0020002800403F4B4C00240C00208D
:1038C40010B5C3780179044641EA0321082004F0C5
:1038D400AFFF0C20218804F0ABFFA178102009026F
:1038E40004F0A6FF10BDC04610B5044604F0E4FB86
:1038F40062783C235343A1784FF4616202FB0131A7
:103904002078081804F0AEFB10BDC04670B506461A
:1039140004F09EFB4FF46164B0FBF4F0B07004F06B
:1039240097FBB0FBF4F303FB14033C25B3FBF5F363
:10393400737004F08DFBB0FBF4F303FB1404B4FBCD
:10394400F5F305FB1343337070BDC04610B5044650
:10395400082004F073FF000AE070082004F06EFFF2
:1039640020710C2004F06AFF2080102004F066FF10
:10397400000AA07010BDC04613B5032214490DF10E
:103984000500FCF72DFC04F063FB124B98420FD9A1
:1039940004F092FB002004F065FB04F08DFB0E485C
:1039A400FFF7C4FE0C48FFF78BFF012002F0BCF9BF
:1039B400074C0948FFF7CAFF2046FFF7A7FF9DF809
:1039C400062063789A4202D0044B01221A701CBD6F
:1039D4004F0D00207E510100460D00206011002093
:1039E40070B5012004F064FA334A00231370536065
:1039F4000EE031494B6801334B604A682F4B9A42C1
:103A040001D901230B702C4B5A682C4B9A4204D8D1
:103A1400412004F0FFFA0028EBD0274B1B7883B930
:103A24004FF4807004F054FA012004F059FAFFF7BF
:103A340021FFFFF701FF47F6FF7004F027FBFFF7B4
:103A4400FBFE1D4B1E4C1B78012B04D1002004F0FF
:103A540009FB206800E0606800F0E6F9164B1C786A
:103A640044BB1848FFF772FF174B1C8004F0F0FAB0
:103A7400164B98421BD9254607E01248FFF756FE1D
:103A8400114A013513880133138004F0E1FA104C14
:103A9400B0FBF4F08542F0D304F0DAFAB0FBF4F3AF
:103AA40003FB140004F0DEFA0648FFF709FF094897
:103AB400FFF72CFF70BDC046240C00203F4B4C0088
:103AC40020050020460D0020640C00207E510100DA
:103AD4007F5101004F0D002010B500F0CDF900F02A
:103AE40093FC00F021FA00F0ABF902F0E7F9FFF7DC
:103AF40077FFFFF7B5FC00F02DFA03F07BF802F036
:103B04007BFBFFF771FCFEF76FFAF8E784B0ADF8C2
:103B14000600BDF806309BB2ADF80E30BDF80E308D
:103B2400013B9BB2ADF80E30BDF80E30002BF5D141
:103B340004B07047044B132888BF0020032988BFB2
:103B44000021187059707047A90D00200E4B0022F7
:103B540070B5944606460D461A700DE00A480B4AA5
:103B64000378517812789B18142202FB01317454A3
:103B740003780133DBB2037015F80C400CF1010C2F
:103B8400002CEBD170BDC0469A140020A90D002072
:103B9400074B00221A7006E00B782022C2540B78DF
:103BA4000133DBB20B7002490B784F2BF4D9704709
:103BB4009A14002010B54FF4807104463C4804F078
:103BC4000FF83B484FF4704104F00AF82209394BCE
:103BD40012F0010F1A7004D035484FF4805103F0ED
:103BE400FDFF344B1B7813F0020F04D030484FF420
:103BF400005103F0F3FF2F4B1B7813F0040F04D094
:103C04002B484FF4804103F0E9FF2A4B1B7813F053
:103C1400080F04D026484FF4004103F0DFFF244886
:103C24004FF4007103F0DAFF21484FF4007103F000
:103C3400D7FF1F484FF4704103F0D2FF1D4B04F02F
:103C44000F0214F0010F1A7004D019484FF4805178
:103C540003F0C4FF174B1B7813F0020F04D0144871
:103C64004FF4005103F0BAFF124B1B7813F0040F0A
:103C740004D00F484FF4804103F0B0FF0D4B1B7884
:103C840013F0080F04D00A484FF4004103F0A6FFD4
:103C940007484FF4007103F0A1FF05484FF4007189
:103CA40003F09EFF41F28830FFF730FF10BDC0469D
:103CB400000C01409E14002010B54FF4807104469E
:103CC4003B4803F08BFF3A484FF4704103F088FF00
:103CD4002209384B12F0010F1A7004D034484FF403
:103CE400805103F07BFF334B1B7813F0020F04D099
:103CF4002F484FF4005103F071FF2E4B1B7813F043
:103D0400040F04D02A484FF4804103F067FF294B85
:103D14001B7813F0080F04D025484FF4004103F03A
:103D24005DFF23484FF4007103F058FF20484FF41F
:103D3400007103F055FF1E484FF4704103F050FF2B
:103D44001C4B04F00F0214F0010F1A7004D0184831
:103D54004FF4805103F042FF164B1B7813F0020F0F
:103D640004D013484FF4005103F038FF114B1B7873
:103D740013F0040F04D00E484FF4804103F02EFFDB
:103D84000C4B1B7813F0080F04D009484FF4004182
:103D940003F024FF06484FF4007103F01FFF0448AA
:103DA4004FF4007103F01CFFF020FFF7AFFE10BDCD
:103DB400000C01409E140020164B70B51B7805467C
:103DC400012B25D1144B1A78144B985CFFF7F2FEA3
:103DD400134B00221A700BE013782178142202FB93
:103DE4000313E85CFFF768FF23780133DBB2237029
:103DF4000B4C094A2378132BEED9064B002119707A
:103E040013780133DBB2042B137004BF054B197014
:103E140070BDC046810C0020401400205189000868
:103E24009A140020800C002070B50546002401E09F
:103E3400FFF742FF285D01340028F9D170BDC04668
:103E440010B54FF6E850FFF761FE2820FFF7B2FEE9
:103E54000620FFF7AFFE0120FFF7ACFE41F28830E9
:103E6400FFF754FE0C20FFF7A5FE024B1868FFF77E
:103E7400DBFF10BD2C050020044B00221A60044B0C
:103E84001A605A609A60DA601A617047340D002033
:103E94001C0D0020044B1860034B1A68013A1A6089
:103EA4001B68002BF8D170472C0C0020014B032217
:103EB4001A6070478C0C0020044B054A9B7A0BB1A6
:103EC400052300E0012313607047C04668140020F6
:103ED4008C0C0020124B10B5196804331868043395
:103EE4001C68D9B10F4AC1F307231371C1F3074307
:103EF40093710B0E1372C0F307231373C0F30743BC
:103F04009373030E1374C4F307231375C4F30743A5
:103F14009375230E917090729474137610BDC046FD
:103F2400E8F7FF1F040B0020002010B503F0B0FFDA
:103F34004FF40000012104F059F810BD10B5FCF74E
:103F4400F7F93520FCF700FA10BDC04610B503F0B0
:103F540095FE10BD10B545F2555003F07DFE0520C9
:103F640003F080FE4FF4806003F082FE03F086FECF
:103F740003F08CFE10BDC0461B4970B5002201241D
:103F84004FF4602302250A608B60CA600C714C7187
:103F94000D74164804F084FB204604F035FC072118
:103FA4000B461248224604F0DDFB2A4607230F483D
:103FB400102104F0D7FB0D48214604F097FB0B4871
:103FC400214604F09FFB094804F0A8FB074804F0CD
:103FD400ABFB0028FAD1054804F0ACFB034804F01D
:103FE400AFFB0028FAD170BDC00D002000240140B1
:103FF40010B5124C204603F069FC1149114B002204
:104004000B60114B8A604B600223CB607E334B61A3
:1040140080338B6103F54073CB61A3F578730B6236
:1040240003F5FF530A614B628A62204603F014FDD4
:104034002046012103F030FD10BDC04608000240B7
:10404400040E00204C240140D40D00200E494FF4EE
:1040540082724A804FF400628A804FF0020210B5E7
:10406400CA800A4C4FF4007200234A814FF0380290
:104074000B800B818A81CB81204604F027F82046EF
:10408400012104F043F810BDEC0D00200030014084
:104094002DE97043334CDFF8D88040F2E733324DDA
:1040A4000026A3804FF003032380E6806680404609
:1040B400214604F093F8284621462C4C04F08EF84F
:1040C4004FF060034FF0010923804FF00203238176
:1040D40040462146A4F80290E68004F0ADF840463C
:1040E400082104F045FA4046214604F003F940460D
:1040F400082104F045FA2846214604F09DF8284694
:10410400082104F035FA2846214604F0F3F828463D
:10411400082104F035FA2846214604F04DF92846D2
:10412400082104F037FA2846214604F0A5F9284668
:10413400082104F037FA4046494604F00BFA404699
:10414400494604F0F7F94046494604F0E5F92846A3
:10415400494604F0FFF92846494604F0DDF9BDE874
:104164007083C046B20D002000040040D80D00202A
:10417400002C01400548142310B5012203700023CC
:1041840042708370C27003F089FD10BDFE0D0020E3
:1041940010B500214FF0005003F0C6FD4FF0006051
:1041A400002103F0C1FDFFF7E5FF10BD2DE9F84F35
:1041B400684CDFF8B4914FF0800323804846002315
:1041C4002146E37003F098FC4FF440734FF002086B
:1041D400614F238048464FF018032146E37084F86A
:1041E400028003F089FC4FF47073238038464FF04B
:1041F40018032146E37084F8028003F07DFC01215A
:104204005648102603F0EEFC4FF0030B48462146B7
:10421400DFF858A12680E67084F802B003F06CFC45
:104224004FF06003238048464FF018032146E370A3
:1042340084F802B003F060FC4FF600335046214688
:104244002380E67084F8028003F056FC4FF4806308
:10425400484621462380E67084F8028003F04CFC33
:1042640048F20003484621462380E67084F8028021
:1042740003F042FC01213A4803F0B4FC40F20C4341
:104284005046214604252380E67084F8028003F01A
:1042940033FC4FF03F03384621462380E57003F09A
:1042A4002BFC50462146A4F800B0E57003F024FC32
:1042B4004FF4C043484621462380E57003F01CFCBC
:1042C400504621462680E57003F016FC4FF4E05377
:1042D400384621462380E57003F00EFC2146214830
:1042E4002580E67084F8028003F006FC48462146E7
:1042F4002580E67084F8028003F0FEFB4FF402632D
:10430400504621462380E67084F8028003F0F4FBD3
:104314004FF40053384621462380E67084F8028027
:1043240003F0EAFB4FF00803484621462380E67079
:1043340084F8028003F0E0FB4CF20003238038464B
:104344004FF018032146E37084F8028003F0D4FB95
:10435400BDE8F88FE80D002000100140000C1A00A1
:10436400000430000014014000080140000C01402A
:1043740010B503F0EBFC4FF4803003F009FD03F0BB
:1043840023FD1F4B01280446187028D11020FBF789
:10439400C3FF0220FBF7B4FF002003F059FD002007
:1043A40003F06AFD4FF4806003F05CFD4FF480403D
:1043B40003F074FD4FF480304FF4E01103F024FD5A
:1043C400204603F02DFD392003F024FE0028FAD006
:1043D400022003F02BFD03F033FD0828FBD101205C
:1043E400014603F0DBFD012141F63D2003F0EAFD27
:1043F4000448012103F0FAFD012003F0A1FC10BDE3
:10440400B00D00200208001810B5FFF7B1FFFFF748
:10441400BFFEFFF793FDFFF7C9FEFFF739FEFFF775
:1044240015FEFFF7E5FDFFF7A7FD6FF0040003F0AD
:1044340087FE42F2283003F099FE012003F0BAFE11
:10444400012003F099FE10BD2DE9F04398463D4B41
:104454000D4611460022041E9DF81C601A7003DAF2
:104464002D23644205F8013BB8F1030F01D903275A
:1044740003E0092934BF0F46092733484FF0000CE5
:104484000EE0B4FBF0F2614442F030034B700A23B7
:1044940000FB1244B0FBF3F00CF101035FFA83FC60
:1044A400BCF1080F2749ECD9C86081F810C0B6B92F
:1044B400C7F109030EE08B185B7805F8013BB8F1EE
:1044C400000F06D0C8F108039A4202D12E2305F842
:1044D400013B531CDAB2082A1A49ECD92CE0002318
:1044E4000B741A4618460CE0531C8C18DEB2431C9D
:1044F4005FFA83FC6378302B08D120236370324643
:104504006046C8F108094A450E49EDDB08700A7493
:10451400C7F109030CE08B185B7805F8013BB8F18F
:10452400000F04D04A4502D12E2305F8013B531C49
:10453400DAB2082A0349EED900230A742B70BDE8C5
:10454400F083C046300C002000E1F50510B5224B85
:104554001B78082B02D0202B3CD11BE01F4B20489A
:104564001A78204B817C03EBC2035B6801315C68E1
:10457400E378994203D100234374837426E0C37C17
:1045840081745A1CA3789A4202D1437C01331AE005
:10459400C2741CE01248837C7BB9104B1A78114B0F
:1045A40003EBC2035B685A68D37891785A1A013BCB
:1045B400013942748374C17409E0013B8374C37C80
:1045C4001BB9437C013B437401E0013BC374064BBC
:1045D40001221A7010BDC046040D0020B40E002044
:1045E400300C00205889000860110020334B70B54E
:1045F4001868334BC1680A6991F801C016685E6196
:1046040055689D61BCF1050F16D8DFE80CF0030670
:1046140011090D1143681A780CE043681A8809E0FF
:10462400436893F9002005E04368B3F9002001E0F2
:1046340043681A68224BDA61224B1B78042B12D090
:10464400102B24D1204B1E4C1978204BE26903EB2C
:104654008103D3F85811AA1A8A4201DAE66113E0F9
:10466400E369CB180FE0184B154C1978174BE26926
:1046740003EB8103D3F85811921B8A4201DAE561F6
:1046840002E0E3695B1AE361114B01221A70BCF189
:10469400050F12D8DFE80CF003080D03080D084BD2
:1046A400DA6943681A7008E0054BDA6943681A80CE
:1046B40003E0034BDA6943681A6070BD44140020B8
:1046C400300C0020040D00204C14002058890008F0
:1046D40060110020094B1A78094B03EBC2035B6895
:1046E4009A68084B1A6003E0137A012B02D05269CE
:1046F400002AF9D1034B1A607047C046B40E00205B
:104704005889000844140020084A13685869106046
:1047140007E0027A012A03D1044B1860104604E032
:1047240040690028F5D1014B1860704744140020FB
:10473400094B1A785AB19B78012B08D1012A03D16D
:10474400064B1A70064B1A70034B00229A70024AE9
:10475400537803B913707047040D0020B40E002081
:1047640060110020104B1978C9B19878012816D12E
:10477400012907D002290FD10C4A002313700C4BD6
:10478400187009E00B4A002353749374D374074BD5
:1047940002221A70064B1970034B00229A70024AC7
:1047A400537803B913707047040D0020B40E002031
:1047B40060110020300C00201FB509220DF1070004
:1047C4003349FBF70DFD334A1378002B5BD0917806
:1047D400012958D1012B09D0022B4FD12E4B002295
:1047E4001A602E4B19702E4B197049E02D4C032280
:1047F40004F111012C48FBF7F3FCA37C04AAD318A1
:1048040013F8094C254B062C1C700ED127490322A2
:104814002748FBF7E5FC224626482749FBF7E0FC3E
:10482400264B00221A70FFF755FF1C4B1B78172BE1
:1048340001D0052B04D1214B00221A70FFF74AFF47
:10484400164B1978CB1EDBB2012B01D9082904D1F0
:10485400144A002353749374D37409290AD1174B4F
:1048640000221A70FFF736FF154B02221A70154BFF
:104874001F321A700A4B01221A7001E0FFF766FE1C
:10488400044B00229A70034A537803B913701FBD76
:10489400D08A0008040D002044140020B40E002027
:1048A40060110020300C00204D1400204F0D00201A
:1048B4004C0D0020520D0020460D00204C14002009
:1048C400BC0E00205F11002073B50422234901A807
:1048D400FBF786FC684622490422FBF781FC214B46
:1048E4001E78002E35D09C78012C32D1012E0ED0AA
:1048F400022E29D11C4B00221A601C481C49033289
:10490400FBF76EFC1B4B1E701B4B1C701EE01B4CFC
:10491400032504F111012A461948FBF761FCA37C25
:1049240002AAD11811F8042C124B1A70154B11F865
:10493400082C1D70144B1A70144B00221A70FFF7C8
:10494400C9FE0D4B1E7001E0FFF700FE054B00226F
:104954009A70044A537803B913707CBDD98A00084D
:10496400DD8A0008040D002044140020410C0020BE
:104974004D140020B40E002060110020300C0020E3
:104984005C110020BC0E00205F1100204C1400209C
:1049940030B585B02B4905220DF10B00FBF720FC47
:1049A4000DF1060028490522FBF71AFC274B1D7858
:1049B400002D40D09C78012C3DD1012D0ED0022D2C
:1049C40034D1234B00221A60224823490332FBF7D7
:1049D40007FC224B1D70224B1C7029E0214C032242
:1049E40004F111012048FBF7FBFBA37C04AAD118B6
:1049F40011F8052C194B1D4C1A701D4B04221A700A
:104A040011F80A3C00222370154B1D70194B1A70C3
:104A1400FFF760FE23780C2B0AD1174B17491A882D
:104A2400CA831A79DB784A770B7701E0FFF78EFDAA
:104A3400064B00229A70054A537803B9137005B0E7
:104A440030BDC046E18A0008E68A0008040D002053
:104A540044140020410C00204D140020B40E00200A
:104A640060110020300C00205C1100205F11002038
:104A7400BC0E00204C140020460D002068110020BC
:104A840070B5174B1C78002C24D09D78012D21D1B2
:104A9400012C0ED0022C1AD1124B00221A6012489B
:104AA40012490332FBF79CFB114B1C70114B1D7018
:104AB4000DE0114B197A51B90D4B20221A700F4B8E
:104AC40019700F4B1C70FFF705FE0A4B1C70044B4A
:104AD40000229A70024A537803B9137070BDC0461D
:104AE400040D002044140020410C00204D1400202B
:104AF400B40E002060110020340E00204C1400205D
:104B04005F11002030B585B0304906220DF10A004E
:104B1400FBF766FB01A82E490622FBF761FB2D4B30
:104B24001D78002D4CD09C78012C49D1012D0ED03C
:104B3400022D40D1284B00221A602848284903320C
:104B4400FBF74EFB274B1D70274B1C7035E0274CA1
:104B5400032204F111012648FBF742FBA37C04AABB
:104B6400D11811F8062C1F4B224C1A70224B082224
:104B74001A7011F80C3C23701B4B1D701F4B002541
:104B84001D70FFF7A7FD22781C2A06D11C4B133297
:104B94009D60DD601B4B1A600FE0292A02D11A4B7D
:104BA4001D7605E0282A08D1184B07221A60233203
:104BB400174B1A7001E0FFF7C9FC064B00229A70EC
:104BC400044A537803B9137005B030BDEB8A00086A
:104BD400F18A0008040D002044140020410C002038
:104BE4004D140020B40E002060110020300C002071
:104BF4005C1100205F110020BC0E00204C1400202A
:104C0400080F002054140020E00E0020300E002075
:104C1400D00C002010B5374A1378002B65D0947857
:104C2400012C62D1022B08D002D8012B58D113E0F9
:104C3400082B49D0202B53D138E02F4B00221A6087
:104C44002E4803322E49FBF7CBFA2E4B1A782E4B03
:104C54001A702E4B1C7045E02D492E4B0A6A1B68B6
:104C6400934202D02C4B9A420DD1294B00221A6256
:104C74002A4B1A702A4A537A82F82230294B1A781E
:104C8400214B1A7026E0254B00221A700A62244A2E
:104C940092F82230013BDBB282F82230E3B90233CE
:104CA40082F82130184B1E221A7015E01B49124B52
:104CB4000A781B680132D2B20A70DB689B7893428F
:104CC4000AD100230B7007E0144B00221A70FFF77F
:104CD4001BFD08B9FFF7FEFC0C4B01221A7001E022
:104CE400FFF784FC034B00229A70024A537803B9FD
:104CF400137010BD040D002044140020410C00204A
:104D04005C110020BC0E0020B40E002060110020B5
:104D1400300C0020340E00206B5201004C14002093
:104D2400681100205F11002010B5204B197800296C
:104D340037D09C78012C34D1012915D002292DD1EA
:104D44001B4B00221A701B481B4B80F824201A604E
:104D5400113003321949FBF743FA194B1A78194BEE
:104D64001A70194B1C7019E01248114C90F8243039
:104D7400164A012B06D12E3313600023237080F8CA
:104D8400243008E01F231360114B00221A700F23F4
:104D9400237080F824100C4B01221A70034B00225C
:104DA4009A70024A537803B9137010BD040D0020A1
:104DB400D00C0020300C0020441400205C11002092
:104DC400BC0E0020B40E00206011002054140020FA
:104DD400F80C002010B50D4B1C788CB19B78012B7E
:104DE4000ED1012C09D10A4B20221A70094B002242
:104DF4001A70FFF76FFC084B1C70044B00229A706A
:104E0400024A537803B9137010BDC046040D002044
:104E1400B40E00204C1400206011002010B50D4A7F
:104E2400137893B19478012C0FD1022B0AD1032269
:104E340009480A49FBF7D4F9094B1A78094B1A7047
:104E4400094B1C70034B00229A70024A537803B931
:104E5400137010BD040D0020410C00205C110020D3
:104E6400BC0E0020B40E00206011002010B5164BBB
:104E7400197819B39C78012C20D1012910D002296A
:104E840019D1124B00221A70114803321149FBF751
:104E9400A7F9114B1A78114B1A70114B1C700AE0C8
:104EA400104B64221A71094B2B221A700E4B0B22E1
:104EB4001A600B4B1970044B00229A70024A537803
:104EC40003B9137010BDC046040D0020D00C00209F
:104ED400410C00205C110020BC0E0020B40E002008
:104EE40060110020E00E0020300E002010B5134A9F
:104EF4001378F3B19478012C1BD1022B14D1104BED
:104F0400DA8A4AF2A5539A4210D00E4B00221A7044
:104F14000D4803320D49FBF763F90D4B1A780D4B1D
:104F24001A700D4B1C7001E0FFF760FB034B00226D
:104F34009A70024A537803B9137010BD040D00200F
:104F4400E00E0020D00C0020410C00205C11002059
:104F5400BC0E0020B40E00206011002070B50E4B72
:104F64001C789CB19D78012D10D1022C0BD10B4BD8
:104F740000221A600A480B490332FBF731F90A4B45
:104F84001C700A4B1D70044B00229A70024A53781D
:104F940003B9137070BDC046040D002044140020F2
:104FA400410C00204D140020B40E0020601100209C
:104FB40010B5184B93F8211069B9174BDA8A4AF2E5
:104FC400A5539A42154A04D129231370144B19701E
:104FD4000FE011701CE0032911D10F4BDA8A4AF259
:104FE400A5539A420D4A07D1292313700C4B002272
:104FF4001A70FFF76FFB0BE00023137008E0012920
:1050040001D11F2202E0022902D11E22034B1A7091
:1050140010BDC046340E0020E00E0020B40E002067
:105024004C14002070B5244B1C78002C3FD09D7884
:10503400012D3CD1022C08D002D8012C32D133E00E
:10504400082C23D0202C2DD112E01C4B00221A60F6
:105054001B48FEF735FC1B48FEF746FC1A481B4963
:105064000322FBF7BDF81A4B1C701A4B1D701BE092
:105074001949124B0A781B680132D2B20A70DB68F4
:105084009B7893420AD100230B7007E0124B002255
:105094001A70FFF739FB08B9FFF71CFB0D4B01220F
:1050A4001A7001E0FFF7A2FA034B00229A70024A39
:1050B400537803B9137070BD040D0020441400200C
:1050C400520D00204C0D0020410C00204D140020F6
:1050D400B40E0020601100204C14002010B5094CBF
:1050E4001420618803F0A4FB1820218803F0A0FB9E
:1050F4001C20E18803F09CFB2020A18803F098FB8E
:1051040010BDC046080F002070B51D4B1D4C352046
:105114002360FBF719F92068FBF770F90024194D97
:10512400194B28681959FBF745F92B6804340433E3
:10513400802C2B60F3D1154B2B600025114C144EA1
:1051440020687159FBF736F9236804350433202DA0
:105154002360F3D10F4D34462E460FCC0FC694E88E
:105164000F000D4C86E80F00802220460649FBF70D
:1051740037F8227E094B1A70FDF73AFA70BDC04623
:1051840000FC0108501400206811002080FC010874
:10519400C00E002010140020340E002058140020EB
:1051A40070B5294A1378002B49D09578012D46D142
:1051B400022B08D002D8012B3CD117E0082B2DD0AC
:1051C400202B37D11CE0214B00241C60FFF79CFFEF
:1051D40003221F481F49FBF703F81F4B1A781F4B84
:1051E4001A701F4B1D701F4B1C7025E01B4A13784F
:1051F4000133DBB2272B137016D12323137013E072
:105204001949124B0A781B680132D2B20A70DB6862
:105214009B7893420AD100230B7007E0124B0022C3
:105224001A70FFF771FA08B9FFF754FA0C4B012210
:105234001A7001E0FFF7DAF9034B00229A70024A70
:10524400537803B9137070BD040D0020441400207A
:10525400410C00205C110020BC0E0020B40E002084
:1052640060110020D00C00204C14002070B5164BA7
:105274001C781CB39D78012D20D1012C11D0022C57
:1052840019D1FFF741FF114B00221A601048033275
:105294001049FAF7A5FF104B04221A700F4B1D702A
:1052A40009E00F4A002313605360FFF717FF0A4B0E
:1052B4001C700A4B1C70044B00229A70024A5378EB
:1052C40003B9137070BDC046040D002044140020BF
:1052D400410C00205C110020B40E0020601100205D
:1052E400080F00202DE9F0412A4B1C78002C4BD0EC
:1052F4009D78012D48D1012C0ED0022C3FD1264B94
:1053040000221A60254826490332FAF769FF254B23
:105314001C70254B1D7034E00021244B5A58244B3B
:105324005A5004318029F8D10022224B224C9B5838
:10533400A3500432202AF8D1DFF874801F4D603264
:1053440041461F482E46FAF74BFF0FCC0FC694E890
:105354000F0086E80F00FFF7D7FE98F81830194AB7
:10536400012B88BF00231370FDF742F90D4B012177
:105374001970154B00221A700B4B197001E0FFF7DE
:10538400E5F8044B00229A70024A537803B913706B
:10539400BDE8F081040D002044140020410C0020DD
:1053A4004D140020B40E002060110020F88A00087B
:1053B400340E0020788B000810140020C00E00204A
:1053C4006811002058140020D00C002010B53C4B6C
:1053D4001A78002A6FD09B78012B6CD1022A08D04E
:1053E40002D8012A62D116E0082A55D0202A5DD1BC
:1053F40044E0344B93F82130032B00D00BB907223F
:1054040002E0012B02D11F222F4B1A702F4B0022D6
:105414001A6001322FE02E492A4B0A6A5B689342D4
:1054240002D02C4B9A4211D1294B002119622A4BEC
:1054340019702A4B9A7A83F8211083F823200122C9
:105444001A72224B1960264B1A780FE0254B002262
:105454001A700A62214A92F82330013BDBB282F8C7
:1054640023302BB9023382F821301E22164B1A70D6
:10547400FFF74AFE01221C4B1A7019E01949134B1D
:105484000A781B680132D2B20A70DB689B789342B7
:10549400F0D100230B70EDE7124B00221A70FFF7D6
:1054A40033F90028E6D1FFF715F9E3E7FFF79EF893
:1054B400034B00229A70024A537803B9137010BD4B
:1054C400040D0020340E0020B40E002044140020EB
:1054D400300C00206B520100D00C00206811002019
:1054E4005F1100204C1400206011002070B5134A95
:1054F4001378EBB19578012D1AD1022B15D1104BED
:10550400104A002412881C600F4BDA80FFF7FCFD60
:1055140003220E480E49FAF763FE0E4B1A780E4B1F
:105524001A700E4B1D700E4B1C70044B00229A70A7
:10553400024A537803B9137070BDC046040D0020AD
:1055440044140020E00E0020C00E0020410C002076
:105554005C110020BC0E0020B40E0020601100205D
:10556400D00C002070B5264B1D78002D42D09E78BB
:10557400012E3FD1022D08D002D8012D35D110E0E3
:10558400082D26D0202D30D115E01E4B00241C7090
:10559400FFF7BAFD1C4B1C601C4B1D701C4B1E708E
:1055A40025E01A4A13780133DBB21C2B137016D191
:1055B4001723137013E01749134B0A781B68013241
:1055C400D2B20A70DB689B7893420AD100230B7035
:1055D40007E0104B00221A70FFF796F808B9FFF79E
:1055E40079F80B4B01221A7001E0FEF7FFFF044B20
:1055F40000229A70024A537803B9137070BDC046F2
:10560400040D0020D00C002044140020B40E00200F
:10561400601100204C14002010B5234A1378002B8D
:105624003DD09478012C3AD1022B08D002D8012B1A
:1056340030D131E0082B21D0202B2BD110E0FFF703
:1056440063FD1A4B00221A60194803321949FAF70C
:10565400C7FD194B1A78194B1A70194B1C701BE0B3
:105664001849124B0A781B680132D2B20A70DB68FF
:105674009B7893420AD100230B7007E0114B002260
:105684001A70FFF741F808B9FFF724F80C4B012210
:105694001A7001E0FEF7AAFF034B00229A70024A37
:1056A400537803B9137010BD040D00204414002076
:1056B400410C00205C110020BC0E0020B40E002020
:1056C400601100204C14002010B5234A1378002BDD
:1056D4003DD09478012C3AD1022B08D002D8012B6A
:1056E40030D131E0082B21D0202B2BD110E0FFF753
:1056F4000BFD1A4B00221A60194803321949FAF7B4
:105704006FFD194B1A78194B1A70194B1C701BE05A
:105714001849124B0A781B680132D2B20A70DB684E
:105724009B7893420AD100230B7007E0114B0022AF
:105734001A70FEF7E9FF08B9FEF7CCFF0C4B012203
:105744001A7001E0FEF752FF034B00229A70024ADE
:10575400537803B9137010BD040D002044140020C5
:10576400410C00205C110020BC0E0020B40E00206F
:10577400601100204C14002010B5284A1378002B27
:1057840047D09478012C44D1022B08D002D8012BA5
:105794003AD115E0082B2BD0202B35D11AE0FFF796
:1057A400B3FC1F4B00221A601E4803321E49FAF74D
:1057B40017FD1E4B1A781E4B1A701E4B1C7025E0E9
:1057C4001B4A13780133DBB2152B137016D1122345
:1057D400137013E01849124B0A781B680132D2B2D5
:1057E4000A70DB689B7893420AD100230B7007E0B0
:1057F400114B00221A70FEF787FF08B9FEF76AFF03
:105804000C4B01221A7001E0FEF7F0FE034B00225C
:105814009A70024A537803B9137010BD040D002026
:1058240044140020410C00205C110020BC0E002018
:10583400B40E0020601100204C14002010B52E4B33
:105844001A78002A52D09B78012B4FD1022A08D013
:1058540002D8012A45D11FE0082A3AD0202A40D193
:1058640029E0264A92F86D3013B94FF00F0303E094
:10587400012B02D14FF01E035386FFF745FC204B4A
:1058840000221A601F4803321F49FAF7A9FC1F4B74
:105894001A781F4B1A700AE01D4A13780133DBB2E1
:1058A400122B137001D10E231370FEF713FF194B43
:1058B40001221A7017E01849114B0A781B6801324B
:1058C400D2B20A70DB689B789342F0D100230B704C
:1058D400EDE7114B00221A70FEF716FF0028E6D1FF
:1058E400E3E7FEF783FE044B00229A70024A5378E2
:1058F40003B9137010BDC046040D002068110020C8
:1059040044140020410C00205C110020BC0E002037
:10591400B40E0020601100204C14002010B5204A61
:105924001378002B37D09478012C34D1082B21D054
:10593400202B11D0022B29D1FFF7E6FB194B0022B3
:105944001A60194803321949FAF74AFC184B042221
:105954001A70184B1C701BE01749124B0A781B680D
:105964000132D2B20A70DB689B7893420AD10023D9
:105974000B7007E0104B00221A70FEF7C5FE08B941
:10598400FEF7A8FE0B4B01221A7001E0FEF72EFE73
:10599400034B00229A70024A537803B9137010BD66
:1059A400040D002044140020410C00205C11002050
:1059B400B40E0020601100204C14002070B52F4A52
:1059C4001378002B55D09678012E52D1082B3FD056
:1059D400202B2FD0022B47D1294B2A4C1979DA7866
:1059E4001888FDF7EDFE284DA0622A7FE88B697FB9
:1059F400FDF7E6FEA36AE062C21A9842226304D26B
:105A0400002385F821302E7206E04FF00003EB846A
:105A14000323AA8485F82130FFF776FB1B4B002271
:105A24001A601B4803321B49FAF7DAFB1A4B0422AB
:105A34001A7015E01949154B0A781B680132D2B265
:105A44000A70DB689B7893420AD100230B7007E04D
:105A5400124B00221A70FEF757FE08B9FEF73AFE01
:105A64000F4B01221A7001E0FEF7C0FD034B002228
:105A74009A70024A537803B9137070BD040D002064
:105A8400460D0020300C0020681100204414002032
:105A9400410C00205C110020B40E00204C140020A6
:105AA4006011002010B5244A1378002B3ED094785E
:105AB400012C3BD1082B28D0202B18D0022B30D11D
:105AC400FFF722FB1D4B1E485A7A1E4983F82220F9
